{
    "_format": "hh-sol-artifact-1",
    "contractName": "WavePortal",
    "sourceName": "contracts/WavePortal.sol",
    "abi": [
        {
            "inputs": [],
            "stateMutability": "payable",
            "type": "constructor"
        },
        {
            "anonymous": false,
            "inputs": [
                {
                    "indexed": true,
                    "internalType": "address",
                    "name": "from",
                    "type": "address"
                },
                {
                    "indexed": false,
                    "internalType": "uint256",
                    "name": "timestamp",
                    "type": "uint256"
                },
                {
                    "indexed": false,
                    "internalType": "string",
                    "name": "message",
                    "type": "string"
                }
            ],
            "name": "NewWave",
            "type": "event"
        },
        {
            "inputs": [],
            "name": "getAllWaves",
            "outputs": [
                {
                    "components": [
                        {
                            "internalType": "address",
                            "name": "waver",
                            "type": "address"
                        },
                        {
                            "internalType": "string",
                            "name": "message",
                            "type": "string"
                        },
                        {
                            "internalType": "uint256",
                            "name": "timestamp",
                            "type": "uint256"
                        }
                    ],
                    "internalType": "struct WavePortal.Wave[]",
                    "name": "",
                    "type": "tuple[]"
                }
            ],
            "stateMutability": "view",
            "type": "function"
        },
        {
            "inputs": [],
            "name": "getTotalWaves",
            "outputs": [
                {
                    "internalType": "uint256",
                    "name": "",
                    "type": "uint256"
                }
            ],
            "stateMutability": "view",
            "type": "function"
        },
        {
            "inputs": [],
            "name": "getWavesCount",
            "outputs": [
                {
                    "internalType": "uint256",
                    "name": "",
                    "type": "uint256"
                }
            ],
            "stateMutability": "view",
            "type": "function"
        },
        {
            "inputs": [
                {
                    "internalType": "string",
                    "name": "_msg",
                    "type": "string"
                }
            ],
            "name": "wave",
            "outputs": [],
            "stateMutability": "nonpayable",
            "type": "function"
        },
        {
            "inputs": [
                {
                    "internalType": "uint256",
                    "name": "",
                    "type": "uint256"
                }
            ],
            "name": "waves",
            "outputs": [
                {
                    "internalType": "address",
                    "name": "waver",
                    "type": "address"
                },
                {
                    "internalType": "string",
                    "name": "message",
                    "type": "string"
                },
                {
                    "internalType": "uint256",
                    "name": "timestamp",
                    "type": "uint256"
                }
            ],
            "stateMutability": "view",
            "type": "function"
        }
    ],
    "bytecode": "0x6080604052620000336040518060600160405280603c815260200162001930603c91396200005b60201b620008111760201c565b6064444262000043919062000160565b6200004f9190620001ca565b600481905550620002c0565b620000fb816040516024016200007291906200029c565b6040516020818303038152906040527f41304fac000000000000000000000000000000000000000000000000000000007bffffffffffffffffffffffffffffffffffffffffffffffffffffffff19166020820180517bffffffffffffffffffffffffffffffffffffffffffffffffffffffff8381831617835250505050620000fe60201b60201c565b50565b60008151905060006a636f6e736f6c652e6c6f679050602083016000808483855afa5050505050565b6000819050919050565b7f4e487b7100000000000000000000000000000000000000000000000000000000600052601160045260246000fd5b60006200016d8262000127565b91506200017a8362000127565b925082820190508082111562000195576200019462000131565b5b92915050565b7f4e487b7100000000000000000000000000000000000000000000000000000000600052601260045260246000fd5b6000620001d78262000127565b9150620001e48362000127565b925082620001f757620001f66200019b565b5b828206905092915050565b600081519050919050565b600082825260208201905092915050565b60005b838110156200023e57808201518184015260208101905062000221565b60008484015250505050565b6000601f19601f8301169050919050565b6000620002688262000202565b6200027481856200020d565b9350620002868185602086016200021e565b62000291816200024a565b840191505092915050565b60006020820190508181036000830152620002b881846200025b565b905092915050565b61166080620002d06000396000f3fe608060405234801561001057600080fd5b50600436106100575760003560e01c80631f6e37861461005c578063449d46c01461007a5780639a2cdc0814610096578063bd43a908146100b4578063c781267a146100d2575b600080fd5b610064610104565b6040516100719190610ac3565b60405180910390f35b610094600480360381019061008f9190610c38565b61014a565b005b61009e610593565b6040516100ab9190610ac3565b60405180910390f35b6100bc6105de565b6040516100c99190610e62565b60405180910390f35b6100ec60048036038101906100e79190610eb0565b61072f565b6040516100fb93929190610f36565b60405180910390f35b60008060003373ffffffffffffffffffffffffffffffffffffffff1673ffffffffffffffffffffffffffffffffffffffff16815260200190815260200160002054905090565b42610384600160003373ffffffffffffffffffffffffffffffffffffffff1673ffffffffffffffffffffffffffffffffffffffff168152602001908152602001600020546101989190610fa3565b106101d8576040517f08c379a00000000000000000000000000000000000000000000000000000000081526004016101cf90611049565b60405180910390fd5b6000803373ffffffffffffffffffffffffffffffffffffffff1673ffffffffffffffffffffffffffffffffffffffff168152602001908152602001600020600081548092919061022790611069565b91905055506002600081548092919061023f90611069565b9190505550600360405180606001604052803373ffffffffffffffffffffffffffffffffffffffff16815260200183815260200142815250908060018154018082558091505060019003906000526020600020906003020160009091909190915060008201518160000160006101000a81548173ffffffffffffffffffffffffffffffffffffffff021916908373ffffffffffffffffffffffffffffffffffffffff16021790555060208201518160010190816102fc91906112bd565b506040820151816002015550506103496040518060400160405280601681526020017f2573206861732077617665642077697468203a2025730000000000000000000081525033836108aa565b3373ffffffffffffffffffffffffffffffffffffffff167f5f7e16dc676677766a70e9c5628aa6c54ddb8b6e5188e2ae1e1f17f1ffbea716428360405161039192919061138f565b60405180910390a242600160003373ffffffffffffffffffffffffffffffffffffffff1673ffffffffffffffffffffffffffffffffffffffff16815260200190815260200160002081905550606444426004546103ee9190610fa3565b6103f89190610fa3565b61040291906113ee565b6004819055506104496040518060400160405280601a81526020017f52616e646f6d206e756d62657220676562657261746564203a20000000000000815250600454610949565b60326004541015610590576104936040518060400160405280600881526020017f257320776f6e2120000000000000000000000000000000000000000000000000815250336109e5565b6000655af3107a40009050478111156104e1576040517f08c379a00000000000000000000000000000000000000000000000000000000081526004016104d890611491565b60405180910390fd5b60003373ffffffffffffffffffffffffffffffffffffffff1682604051610507906114e2565b60006040518083038185875af1925050503d8060008114610544576040519150601f19603f3d011682016040523d82523d6000602084013e610549565b606091505b505090508061058d576040517f08c379a000000000000000000000000000000000000000000000000000000000815260040161058490611543565b60405180910390fd5b50505b50565b60006105d66040518060400160405280601681526020017f5765206861766520256420746f74616c20776176657300000000000000000000815250600254610949565b600254905090565b60606003805480602002602001604051908101604052809291908181526020016000905b8282101561072657838290600052602060002090600302016040518060600160405290816000820160009054906101000a900473ffffffffffffffffffffffffffffffffffffffff1673ffffffffffffffffffffffffffffffffffffffff1673ffffffffffffffffffffffffffffffffffffffff16815260200160018201805461068b906110e0565b80601f01602080910402602001604051908101604052809291908181526020018280546106b7906110e0565b80156107045780601f106106d957610100808354040283529160200191610704565b820191906000526020600020905b8154815290600101906020018083116106e757829003601f168201915b5050505050815260200160028201548152505081526020019060010190610602565b50505050905090565b6003818154811061073f57600080fd5b90600052602060002090600302016000915090508060000160009054906101000a900473ffffffffffffffffffffffffffffffffffffffff1690806001018054610788906110e0565b80601f01602080910402602001604051908101604052809291908181526020018280546107b4906110e0565b80156108015780601f106107d657610100808354040283529160200191610801565b820191906000526020600020905b8154815290600101906020018083116107e457829003601f168201915b5050505050908060020154905083565b6108a7816040516024016108259190611563565b6040516020818303038152906040527f41304fac000000000000000000000000000000000000000000000000000000007bffffffffffffffffffffffffffffffffffffffffffffffffffffffff19166020820180517bffffffffffffffffffffffffffffffffffffffffffffffffffffffff8381831617835250505050610a81565b50565b6109448383836040516024016108c293929190611585565b6040516020818303038152906040527fe0e9ad4f000000000000000000000000000000000000000000000000000000007bffffffffffffffffffffffffffffffffffffffffffffffffffffffff19166020820180517bffffffffffffffffffffffffffffffffffffffffffffffffffffffff8381831617835250505050610a81565b505050565b6109e1828260405160240161095f9291906115ca565b6040516020818303038152906040527fb60e72cc000000000000000000000000000000000000000000000000000000007bffffffffffffffffffffffffffffffffffffffffffffffffffffffff19166020820180517bffffffffffffffffffffffffffffffffffffffffffffffffffffffff8381831617835250505050610a81565b5050565b610a7d82826040516024016109fb9291906115fa565b6040516020818303038152906040527f319af333000000000000000000000000000000000000000000000000000000007bffffffffffffffffffffffffffffffffffffffffffffffffffffffff19166020820180517bffffffffffffffffffffffffffffffffffffffffffffffffffffffff8381831617835250505050610a81565b5050565b60008151905060006a636f6e736f6c652e6c6f679050602083016000808483855afa5050505050565b6000819050919050565b610abd81610aaa565b82525050565b6000602082019050610ad86000830184610ab4565b92915050565b6000604051905090565b600080fd5b600080fd5b600080fd5b600080fd5b6000601f19601f8301169050919050565b7f4e487b7100000000000000000000000000000000000000000000000000000000600052604160045260246000fd5b610b4582610afc565b810181811067ffffffffffffffff82111715610b6457610b63610b0d565b5b80604052505050565b6000610b77610ade565b9050610b838282610b3c565b919050565b600067ffffffffffffffff821115610ba357610ba2610b0d565b5b610bac82610afc565b9050602081019050919050565b82818337600083830152505050565b6000610bdb610bd684610b88565b610b6d565b905082815260208101848484011115610bf757610bf6610af7565b5b610c02848285610bb9565b509392505050565b600082601f830112610c1f57610c1e610af2565b5b8135610c2f848260208601610bc8565b91505092915050565b600060208284031215610c4e57610c4d610ae8565b5b600082013567ffffffffffffffff811115610c6c57610c6b610aed565b5b610c7884828501610c0a565b91505092915050565b600081519050919050565b600082825260208201905092915050565b6000819050602082019050919050565b600073ffffffffffffffffffffffffffffffffffffffff82169050919050565b6000610cd882610cad565b9050919050565b610ce881610ccd565b82525050565b600081519050919050565b600082825260208201905092915050565b60005b83811015610d28578082015181840152602081019050610d0d565b60008484015250505050565b6000610d3f82610cee565b610d498185610cf9565b9350610d59818560208601610d0a565b610d6281610afc565b840191505092915050565b610d7681610aaa565b82525050565b6000606083016000830151610d946000860182610cdf565b5060208301518482036020860152610dac8282610d34565b9150506040830151610dc16040860182610d6d565b508091505092915050565b6000610dd88383610d7c565b905092915050565b6000602082019050919050565b6000610df882610c81565b610e028185610c8c565b935083602082028501610e1485610c9d565b8060005b85811015610e505784840389528151610e318582610dcc565b9450610e3c83610de0565b925060208a01995050600181019050610e18565b50829750879550505050505092915050565b60006020820190508181036000830152610e7c8184610ded565b905092915050565b610e8d81610aaa565b8114610e9857600080fd5b50565b600081359050610eaa81610e84565b92915050565b600060208284031215610ec657610ec5610ae8565b5b6000610ed484828501610e9b565b91505092915050565b610ee681610ccd565b82525050565b600082825260208201905092915050565b6000610f0882610cee565b610f128185610eec565b9350610f22818560208601610d0a565b610f2b81610afc565b840191505092915050565b6000606082019050610f4b6000830186610edd565b8181036020830152610f5d8185610efd565b9050610f6c6040830184610ab4565b949350505050565b7f4e487b7100000000000000000000000000000000000000000000000000000000600052601160045260246000fd5b6000610fae82610aaa565b9150610fb983610aaa565b9250828201905080821115610fd157610fd0610f74565b5b92915050565b7f57616974203135206d696e7574657320616674657220796f7572206c6173742060008201527f7761766500000000000000000000000000000000000000000000000000000000602082015250565b6000611033602483610eec565b915061103e82610fd7565b604082019050919050565b6000602082019050818103600083015261106281611026565b9050919050565b600061107482610aaa565b91507fffffffffffffffffffffffffffffffffffffffffffffffffffffffffffffffff82036110a6576110a5610f74565b5b600182019050919050565b7f4e487b7100000000000000000000000000000000000000000000000000000000600052602260045260246000fd5b600060028204905060018216806110f857607f821691505b60208210810361110b5761110a6110b1565b5b50919050565b60008190508160005260206000209050919050565b60006020601f8301049050919050565b600082821b905092915050565b6000600883026111737fffffffffffffffffffffffffffffffffffffffffffffffffffffffffffffffff82611136565b61117d8683611136565b95508019841693508086168417925050509392505050565b6000819050919050565b60006111ba6111b56111b084610aaa565b611195565b610aaa565b9050919050565b6000819050919050565b6111d48361119f565b6111e86111e0826111c1565b848454611143565b825550505050565b600090565b6111fd6111f0565b6112088184846111cb565b505050565b5b8181101561122c576112216000826111f5565b60018101905061120e565b5050565b601f8211156112715761124281611111565b61124b84611126565b8101602085101561125a578190505b61126e61126685611126565b83018261120d565b50505b505050565b600082821c905092915050565b600061129460001984600802611276565b1980831691505092915050565b60006112ad8383611283565b9150826002028217905092915050565b6112c682610cee565b67ffffffffffffffff8111156112df576112de610b0d565b5b6112e982546110e0565b6112f4828285611230565b600060209050601f8311600181146113275760008415611315578287015190505b61131f85826112a1565b865550611387565b601f19841661133586611111565b60005b8281101561135d57848901518255600182019150602085019450602081019050611338565b8683101561137a5784890151611376601f891682611283565b8355505b6001600288020188555050505b505050505050565b60006040820190506113a46000830185610ab4565b81810360208301526113b68184610efd565b90509392505050565b7f4e487b7100000000000000000000000000000000000000000000000000000000600052601260045260246000fd5b60006113f982610aaa565b915061140483610aaa565b925082611414576114136113bf565b5b828206905092915050565b7f54686520636f6e747261637427732062616c616e636520697320696e7375666660008201527f696369656e740000000000000000000000000000000000000000000000000000602082015250565b600061147b602683610eec565b91506114868261141f565b604082019050919050565b600060208201905081810360008301526114aa8161146e565b9050919050565b600081905092915050565b50565b60006114cc6000836114b1565b91506114d7826114bc565b600082019050919050565b60006114ed826114bf565b9150819050919050565b7f4661696c656420746f2073656e64206574680000000000000000000000000000600082015250565b600061152d601283610eec565b9150611538826114f7565b602082019050919050565b6000602082019050818103600083015261155c81611520565b9050919050565b6000602082019050818103600083015261157d8184610efd565b905092915050565b6000606082019050818103600083015261159f8186610efd565b90506115ae6020830185610edd565b81810360408301526115c08184610efd565b9050949350505050565b600060408201905081810360008301526115e48185610efd565b90506115f36020830184610ab4565b9392505050565b600060408201905081810360008301526116148185610efd565b90506116236020830184610edd565b939250505056fea264697066735822122039b9b6ac76756187bc12f242d84218c46a4ddebdfb9f91dc2ad60adda7f6244464736f6c63430008110033596f206920616d206120636f6e74726163742063616c6c65642057617665506f7274616c20746861742063616e207265636569766520776176657321",
    "linkReferences": {},
    "deployedLinkReferences": {}
}